:1000000022C0FCC13BC03AC039C038C037C036C07E
:1000100035C034C033C032C031C030C02FC02EC054
:100020002DC02CC02BC01DC1FEC0FFC000C101C12E
:1000300002C103C104C105C106C107C108C109C18C
:100040000AC10BC10CC111241FBECFE5D4E0DEBF35
:10005000CDBF10E0A0E6B0E0E6E5F5E002C0059017
:100060000D92AC3CB107D9F721E0ACECB0E001C097
:100070001D92AA30B207E1F7ACD16BC2C1CFE199B2
:10008000FECF9FBB8EBB6DBBE29AE19A0895E199CA
:10009000FECF9FBB8EBBE09A8DB30895EF92FF9287
:1000A0000F931F93CF93DF938C017B01EA0120977D
:1000B00049F0F70161917F01C801E1DF0F5F1F4F38
:1000C0002197B9F7DF91CF911F910F91FF90EF909A
:1000D0000895AF92BF92CF92DF92EF92FF920F936B
:1000E0001F93CF93DF93EC015B016A01411551052A
:1000F00069F08A017B01CE01CADFF70181937F019C
:10010000219601501109B9F7AC0CBD1CF501EC0D9D
:10011000FD1D1082DF91CF911F910F91FF90EF9005
:10012000DF90CF90BF90AF9008950F931F93CF9320
:10013000DF938C0185E090E0AADFC82FD0E0AE010C
:10014000B80185E190E0C5DFC00FD11F1882DF91B3
:10015000CF911F910F9108950F931F93CF93DF932A
:10016000CDB7DEB764970FB6F894DEBF0FBECDBF34
:100170008D98959A2FEF8DE399E42150804090401F
:10018000E1F700C00000859930C020D180E690E002
:10019000F7D08E010F5F1F4F0AC0F80181938F01C6
:1001A0001082AE014F5F5F4F60E081E006D12CD03E
:1001B000833299F78E010F5F1F4FF80101900020E5
:1001C000E9F73197BF01601B710B85E090E057DFC5
:1001D000F80101900020E9F73197AF01401B510B66
:1001E000B80185E190E05ADF04C0F0D082E790E0EA
:1001F000C7D064960FB6F894DEBF0FBECDBFDF91B7
:10020000CF911F910F91089586B38C738695869533
:100210008F5F482F50E0FA013197E031F10510F57A
:10022000ED5EFF4F099482E3089583E3089581E62C
:10023000089584E3089585E3089586E3089582E6AA
:10024000089587E3089588E3089589E3089583E690
:1002500008958AE2089580E3089583E2089584E68C
:10026000089581E30895C098EFECF7E03197F1F736
:1002700000C00000C19AEFECF7E03197F1F700C041
:10028000000095B315BA95B3282F22952F70922BA5
:1002900095BBEFECF7E03197F1F700C00000C19893
:1002A000EFECF7E03197F1F700C00000C19AEFECF6
:1002B000F7E03197F1F700C0000095B315BA95B398
:1002C0008F70892B85BB8FEC97E00197F1F700C009
:1002D0000000C198EFECF7E03197F1F700C00000A3
:1002E000089587B3836087BB84B38F6084BB82E04B
:1002F000BADF88E2B8DF8CE0B6DF81E0B4DF8CE003
:10030000B2DF0895C09AEFECF7E03197F1F700C043
:100310000000C19AEFECF7E03197F1F700C0000060
:1003200095B315BA95B3282F22952F70922B95BBB4
:10033000EFECF7E03197F1F700C00000C198EFEC67
:10034000F7E03197F1F700C00000C19AEFECF7E059
:100350003197F1F700C0000095B315BA95B38F70CF
:10036000892B85BB8FEC97E00197F1F700C0000067
:10037000C198EFECF7E03197F1F700C00000089565
:10038000CF93DF93EC018881882329F02196BADF8F
:1003900089918111FCCFDF91CF910895823031F0A6
:1003A000833031F0813029F4605C03C0605F01C0AC
:1003B000605B862F806857DF0895CF93DF93EA0153
:1003C000EDDFCE01DDDFDF91CF91089581E04BDFDE
:1003D0000895F8948A9885B7816085BF85B7826053
:1003E00085BF8BB780648BBF8AB780648ABF7894DF
:1003F00078DF84E890E0C4DFAFDEFFCF1F920F927A
:100400000FB60F9211242F933F934F935F936F93E7
:100410007F938F939F93AF93BF93CF93DF93EF938C
:10042000FF93D4DF42E950E060E080E0C6DFECDE1D
:100430008093F600833209F058C060E081E0AEDFBF
:100440008DE990E09DDF2FEF80E792E02150804022
:100450009040E1F700C000001092F7001092F60003
:1004600082EE90E062DE82EE90E08ADFAFDFE2EEC5
:10047000F0E001900020E9F73197CF01825E9040D3
:10048000EEECF0E001900020E9F73197EE5CF040EF
:100490008E179F07A1F4E6EFF0E0C081D181CE0175
:1004A00001969183808362EE70E08EEC90E048D0FC
:1004B000892B29F42296D093F700C093F6008091FF
:1004C000F6009091F700029729F480DF8FEA90E020
:1004D00057DF04C07BDF8CEB90E052DF1092CD0041
:1004E0001092CC001092CE0018C04091CC005091D8
:1004F000CD009A012F5F3F4F3093CD002093CC0069
:10050000FA01E253FF4F8083F901E253FF4F10825B
:100510004EEC50E06AE080E050DFFF91EF91DF9118
:10052000CF91BF91AF919F918F917F916F915F918B
:100530004F913F912F910F900FBE0F901F901895E4
:10054000FB01DC018D91019080190110D9F3990B09
:060550000895F894FFCFAE
:10055600736574206E65772070617373776F72644C
:100566003A0075736520796F7572207061737377C1
:100576006F726400496E697469617465206C6F639B
:100586006B007073737772642069733A00636865F1
:10059600636B696E672070617373776F7264006F47
:1005A60070656E696E6720676174650077726F6E3D
:0C05B600672070617373776F726400003F
:00000001FF
