S01100006D61696E20676174652E73726563AD
S113000022C049C23BC03AC039C038C037C036C02C
S1130010A7C334C033C032C031C030C02FC02EC0DB
S11300202DC02CC02BC00DC1EEC0EFC0F0C0F1C07C
S1130030F2C0F3C0F4C0F5C0F6C0F7C0F8C0F9C010
S1130040FAC0FBC0FCC011241FBECFE5D4E0DEBF64
S1130050CDBF11E0A0E6B0E0E6EEF7E002C0059007
S11300600D92AC35B107D9F721E0ACE5B1E001C0A0
S11300701D92AC39B207E1F7F0D1B3C3C1CFE19916
S1130080FECF9FBB8EBB6DBBE29AE19A0895E199C6
S1130090FECF9FBB8EBBE09A8DB30895EF92FF9283
S11300A00F931F93CF93DF938C017B01EA01209779
S11300B049F0F70161917F01C801E1DF0F5F1F4F34
S11300C02197B9F7DF91CF911F910F91FF90EF9096
S11300D00895AF92BF92CF92DF92EF92FF920F9367
S11300E01F93CF93DF93EC015B016A014115510526
S11300F069F08A017B01CE01CADFF70181937F0198
S1130100219601501109B9F7AC0CBD1CF501EC0D99
S1130110FD1D1082DF91CF911F910F91FF90EF9001
S1130120DF90CF90BF90AF9008950F931F93CF931C
S1130130DF938C0185E090E0AADFC82FD0E0AE0108
S1130140B80185E190E0C5DFC00FD11F1882DF91AF
S1130150CF911F910F9108952FE78AE196E02150E6
S113016080409040E1F700C0000085990CC026D182
S113017080E690E0FDD04EE650E060E081E015D1ED
S113018081E090E0089580E090E00895969A2FE74A
S11301908AE196E0215080409040E1F700C00000E1
S11301A096980895979A2FED83E994E02150804022
S11301B09040E1F700C0000097980895979A87EA65
S11301C091E60197F1F700C000009798089585B76C
S11301D0806885BF85B78F7E85BF85B7806285BF00
S11301E085B78F7B85BF089586B38C738695869576
S11301F08F5F482F50E0FA013197E031F10510F597
S1130200ED5EFF4F099482E3089583E3089581E648
S1130210089584E3089585E3089586E3089582E6C6
S1130220089587E3089588E3089589E3089583E6AC
S113023008958AE2089580E3089583E2089584E6A8
S1130240089581E308959098E9EFF0E03197F1F78C
S113025000C00000919AE9EFF0E03197F1F700C097
S1130260000095B315BA95B3282F22952F70922BC1
S113027095BBE9EFF0E03197F1F700C000009198E9
S1130280E9EFF0E03197F1F700C00000919AE9EF4F
S1130290F0E03197F1F700C0000095B315BA95B3BB
S11302A08F70892B85BB89EF90E00197F1F700C02F
S11302B000009198E9EFF0E03197F1F700C00000F9
S11302C00895B99AC19A83ED90E30197F1F700C0BC
S11302D0000081B3836081BB84B38F6084BB82E000
S11302E0B2DF88E2B0DF8CE0AEDF81E0ACDF8CE02F
S11302F0AADF0895909AE9EFF0E03197F1F700C092
S11303000000919AE9EFF0E03197F1F700C00000A6
S113031095B315BA95B3282F22952F70922B95BBC0
S1130320E9EFF0E03197F1F700C000009198E9EFB0
S1130330F0E03197F1F700C00000919AE9EFF0E0A6
S11303403197F1F700C0000095B315BA95B38F70DB
S1130350892B85BB89EF90E00197F1F700C000007D
S11303609198E9EFF0E03197F1F700C000000895AB
S1130370CF93DF93EC018881882329F02196BADF9B
S113038089918111FCCFDF91CF910895823031F0B2
S1130390833031F0813029F4605C03C0605F01C0B8
S11303A0605B862F80684FDF0895CF93DF93EA0167
S11303B0EDDFCE01DDDFDF91CF91089581E043DFF2
S11303C0089588E040DF85B315BA82B312BAC198A4
S11303D0089577DF08958E9A96988F9A97988A98B9
S11303E08D98959A08958FB58E7F8FBD8FB58D7F2B
S11303F08FBD8EB5877F8EBD8EB58F7E8EBD8EB53B
S11304008E7F8EBD8EB58D7F8EBD8EB584608EBD84
S113041081E090E09DBD8CBD88B7846088BF89B7BA
S1130420846089BF08958EB58E7F8EBD8EB58D7F15
S11304308EBD8EB58B7F8EBD89B78B7F89BF0895A6
S11304408EB58E7F8EBD8EB58D7F8EBD8EB584604C
S11304508EBD89B7846089BF0895F89485B781609B
S113046085BF85B7826085BF8BB780648BBF8AB731
S113047080648ABF7894AFDF24DF8DE790E078DF73
S11304806BDE90935D0180935C01ADDF97DF8BE8B9
S113049090E06EDFFFCF1F920F920FB60F921124E0
S11304A00F931F932F933F934F935F936F937F9378
S11304B08F939F93AF93BF93CF93DF93EF93FF9368
S11304C07DDE87DF81E090E09DBD8CBDB9DF80914A
S11304D05C0190915D01892B09F08AC06FDF46E9C8
S11304E050E060E080E061DF7FDE8093880183324A
S11304F009F05FC060E081E049DF81EA90E038DF25
S113050087EA91E60197F1F700C000001092890193
S11305101092880184E791E008DE84E791E028DF07
S11305204DDFE4E7F1E001900020E9F73197CF01D6
S113053084579140E0E6F1E001900020E9F731971B
S1130540E056F1408E179F07A1F4E8E8F1E0C0817E
S1130550D181CE0101969183808364E771E080E6C6
S113056091E036D1892B29F42296D0938901C09346
S113057088018091880190918901029751F41EDFCE
S113058083EB90E0F5DE02DE8CED9FEF9DBD8CBD2C
S113059009C014DF80EC90E0EBDE04DE0FDF81EDB8
S11305A090E0E6DE10925F0110925E01109260010D
S11305B0C2C040915E0150915F019A012F5F3F4F8D
S11305C030935F0120935E01FA01E05AFE4F80836D
S11305D0F901E05AFE4F1082F1DE46E950E060E096
S11305E080E0E3DE40E651E060E081E0DEDEA3C0CF
S11305F0F89400E611E0C8E8D1E0F8011082109206
S11306005F0110925E01DADE81EE90E0B1DE829944
S1130610FECF829BFECF25C040915E0150915F01C9
S11306209A012F5F3F4F30935F0120935E01FA01DF
S1130630E05AFE4F8083F901E05AFE4F1082BEDE7D
S113064082EF90E095DEA80160E081E0AEDE87EA0B
S113065091E60197F1F700C000008299FECF829BDA
S1130660FECFC2DD88838332B9F6A8DE82E091E052
S11306707FDEA80160E081E098DE9FE3EDE0F3E037
S11306809150E040F040E1F700C0000097DEC8015F
S11306906FDE40E151E060E081E087DE8299FECFC9
S11306A0829BFECFA1DD8883833209F0A6CF829995
S11306B0FECF84DE81E291E05BDE40E651E060E063
S11306C081E073DE2FEB84ED91E021508040904077
S11306D0E1F700C00000C0E6D1E0FE010190002077
S11306E0E9F73197BF016056714085E090E0C7DCBF
S11306F0FE0101900020E9F73197AF0140565140C7
S1130700BE0185E190E0CADC59DE8FE291E030DE83
S113071055DE80E491E02CDE10925D0110925C01C4
S1130720188210925F0110925E01109288018AB7BC
S113073080648ABF7894FF91EF91DF91CF91BF914C
S1130740AF919F918F917F916F915F914F913F9165
S11307502F911F910F910F900FBE0F901F9018951E
S11307601F920F920FB60F9211242F933F934F9322
S11307705F936F937F938F939F93AF93BF93EF9305
S1130780FF931092600110925F0110925E0116DED9
S11307908EE491E0EDDD2FEB87E299E0215080407B
S11307A09040E1F700C000003EDE0BDE10DDFF915B
S11307B0EF91BF91AF919F918F917F916F915F91D5
S11307C04F913F912F910F900FBE0F901F9018954E
S11307D0FB01DC018D91019080190110D9F3990B73
S10907E00895F894FFCF18
S11307E6707265737320616E79206B657900746F1E
S11307F6206368616E6765207061737300496E6972
S11308067469617465206C6F636B0053595320538C
S11308167461727473007073737772642069733AC7
S113082600636865636B696E672070617373776FC5
S11308367264006F70656E696E6720676174650027
S113084677726F6E6720707373777264202D5F2DD5
S11308560065746E61796C2074616E69202D5F2D5C
S113086600656E746572206E657720707373777297
S113087664006E65772070617373776F72642069A4
S113088673006E65772070617373206973203A0074
S1130896707265737320232032636F6E6669726D9E
S11308A6006E65772070617373776F7264200070D1
S11308B6617373776F726420757064617465640024
S11308C6747279206974206B6461203B2900747505
S10F08D6726E6E696E67206F666600002B
S9030000FC
